{
  "_format": "hh-sol-artifact-1",
  "contractName": "ArticleRegistry",
  "sourceName": "contracts/ArticleRegistry.sol",
  "abi": [
    {
      "anonymous": false,
      "inputs": [
        {
          "indexed": true,
          "internalType": "uint256",
          "name": "articleId",
          "type": "uint256"
        },
        {
          "indexed": true,
          "internalType": "address",
          "name": "author",
          "type": "address"
        },
        {
          "indexed": false,
          "internalType": "string",
          "name": "title",
          "type": "string"
        }
      ],
      "name": "ArticleSubmitted",
      "type": "event"
    },
    {
      "inputs": [
        {
          "internalType": "uint256",
          "name": "",
          "type": "uint256"
        }
      ],
      "name": "articles",
      "outputs": [
        {
          "internalType": "address",
          "name": "author",
          "type": "address"
        },
        {
          "internalType": "string",
          "name": "title",
          "type": "string"
        },
        {
          "internalType": "string",
          "name": "contentHash",
          "type": "string"
        },
        {
          "internalType": "uint256",
          "name": "timestamp",
          "type": "uint256"
        }
      ],
      "stateMutability": "view",
      "type": "function"
    },
    {
      "inputs": [
        {
          "internalType": "uint256",
          "name": "_index",
          "type": "uint256"
        }
      ],
      "name": "getArticle",
      "outputs": [
        {
          "components": [
            {
              "internalType": "address",
              "name": "author",
              "type": "address"
            },
            {
              "internalType": "string",
              "name": "title",
              "type": "string"
            },
            {
              "internalType": "string",
              "name": "contentHash",
              "type": "string"
            },
            {
              "internalType": "uint256",
              "name": "timestamp",
              "type": "uint256"
            }
          ],
          "internalType": "struct ArticleRegistry.Article",
          "name": "",
          "type": "tuple"
        }
      ],
      "stateMutability": "view",
      "type": "function"
    },
    {
      "inputs": [],
      "name": "getTotalArticles",
      "outputs": [
        {
          "internalType": "uint256",
          "name": "",
          "type": "uint256"
        }
      ],
      "stateMutability": "view",
      "type": "function"
    },
    {
      "inputs": [
        {
          "internalType": "string",
          "name": "_title",
          "type": "string"
        },
        {
          "internalType": "string",
          "name": "_contentHash",
          "type": "string"
        }
      ],
      "name": "submitArticle",
      "outputs": [],
      "stateMutability": "nonpayable",
      "type": "function"
    }
  ],
  "bytecode": "0x6080604052348015600f57600080fd5b50610ddb8061001f6000396000f3fe608060405234801561001057600080fd5b506004361061004c5760003560e01c80630ebf1d3d1461005157806325671a2f1461006f578063bd85d8671461008b578063edcfafe6146100bb575b600080fd5b6100596100ee565b60405161006691906105c6565b60405180910390f35b6100896004803603810190610084919061073b565b6100fa565b005b6100a560048036038101906100a091906107df565b61023f565b6040516100b29190610945565b60405180910390f35b6100d560048036038101906100d091906107df565b6103ff565b6040516100e594939291906109c0565b60405180910390f35b60008080549050905090565b600060405180608001604052803373ffffffffffffffffffffffffffffffffffffffff16815260200184815260200183815260200142815250908060018154018082558091505060019003906000526020600020906004020160009091909190915060008201518160000160006101000a81548173ffffffffffffffffffffffffffffffffffffffff021916908373ffffffffffffffffffffffffffffffffffffffff16021790555060208201518160010190816101b89190610c1f565b5060408201518160020190816101ce9190610c1f565b506060820151816003015550503373ffffffffffffffffffffffffffffffffffffffff1660016000805490506102049190610d20565b7fd0916480432272b76a4b68ea5188a0910ac3c6da56a6808330eeedb5546a94e2846040516102339190610d54565b60405180910390a35050565b61024761056f565b6000828154811061025b5761025a610d76565b5b90600052602060002090600402016040518060800160405290816000820160009054906101000a900473ffffffffffffffffffffffffffffffffffffffff1673ffffffffffffffffffffffffffffffffffffffff1673ffffffffffffffffffffffffffffffffffffffff1681526020016001820180546102da90610a42565b80601f016020809104026020016040519081016040528092919081815260200182805461030690610a42565b80156103535780601f1061032857610100808354040283529160200191610353565b820191906000526020600020905b81548152906001019060200180831161033657829003601f168201915b5050505050815260200160028201805461036c90610a42565b80601f016020809104026020016040519081016040528092919081815260200182805461039890610a42565b80156103e55780601f106103ba576101008083540402835291602001916103e5565b820191906000526020600020905b8154815290600101906020018083116103c857829003601f168201915b505050505081526020016003820154815250509050919050565b6000818154811061040f57600080fd5b90600052602060002090600402016000915090508060000160009054906101000a900473ffffffffffffffffffffffffffffffffffffffff169080600101805461045890610a42565b80601f016020809104026020016040519081016040528092919081815260200182805461048490610a42565b80156104d15780601f106104a6576101008083540402835291602001916104d1565b820191906000526020600020905b8154815290600101906020018083116104b457829003601f168201915b5050505050908060020180546104e690610a42565b80601f016020809104026020016040519081016040528092919081815260200182805461051290610a42565b801561055f5780601f106105345761010080835404028352916020019161055f565b820191906000526020600020905b81548152906001019060200180831161054257829003601f168201915b5050505050908060030154905084565b6040518060800160405280600073ffffffffffffffffffffffffffffffffffffffff1681526020016060815260200160608152602001600081525090565b6000819050919050565b6105c0816105ad565b82525050565b60006020820190506105db60008301846105b7565b92915050565b6000604051905090565b600080fd5b600080fd5b600080fd5b600080fd5b6000601f19601f8301169050919050565b7f4e487b7100000000000000000000000000000000000000000000000000000000600052604160045260246000fd5b610648826105ff565b810181811067ffffffffffffffff8211171561066757610666610610565b5b80604052505050565b600061067a6105e1565b9050610686828261063f565b919050565b600067ffffffffffffffff8211156106a6576106a5610610565b5b6106af826105ff565b9050602081019050919050565b82818337600083830152505050565b60006106de6106d98461068b565b610670565b9050828152602081018484840111156106fa576106f96105fa565b5b6107058482856106bc565b509392505050565b600082601f830112610722576107216105f5565b5b81356107328482602086016106cb565b91505092915050565b60008060408385031215610752576107516105eb565b5b600083013567ffffffffffffffff8111156107705761076f6105f0565b5b61077c8582860161070d565b925050602083013567ffffffffffffffff81111561079d5761079c6105f0565b5b6107a98582860161070d565b9150509250929050565b6107bc816105ad565b81146107c757600080fd5b50565b6000813590506107d9816107b3565b92915050565b6000602082840312156107f5576107f46105eb565b5b6000610803848285016107ca565b91505092915050565b600073ffffffffffffffffffffffffffffffffffffffff82169050919050565b60006108378261080c565b9050919050565b6108478161082c565b82525050565b600081519050919050565b600082825260208201905092915050565b60005b8381101561088757808201518184015260208101905061086c565b60008484015250505050565b600061089e8261084d565b6108a88185610858565b93506108b8818560208601610869565b6108c1816105ff565b840191505092915050565b6108d5816105ad565b82525050565b60006080830160008301516108f3600086018261083e565b506020830151848203602086015261090b8282610893565b915050604083015184820360408601526109258282610893565b915050606083015161093a60608601826108cc565b508091505092915050565b6000602082019050818103600083015261095f81846108db565b905092915050565b6109708161082c565b82525050565b600082825260208201905092915050565b60006109928261084d565b61099c8185610976565b93506109ac818560208601610869565b6109b5816105ff565b840191505092915050565b60006080820190506109d56000830187610967565b81810360208301526109e78186610987565b905081810360408301526109fb8185610987565b9050610a0a60608301846105b7565b95945050505050565b7f4e487b7100000000000000000000000000000000000000000000000000000000600052602260045260246000fd5b60006002820490506001821680610a5a57607f821691505b602082108103610a6d57610a6c610a13565b5b50919050565b60008190508160005260206000209050919050565b60006020601f8301049050919050565b600082821b905092915050565b600060088302610ad57fffffffffffffffffffffffffffffffffffffffffffffffffffffffffffffffff82610a98565b610adf8683610a98565b95508019841693508086168417925050509392505050565b6000819050919050565b6000610b1c610b17610b12846105ad565b610af7565b6105ad565b9050919050565b6000819050919050565b610b3683610b01565b610b4a610b4282610b23565b848454610aa5565b825550505050565b600090565b610b5f610b52565b610b6a818484610b2d565b505050565b5b81811015610b8e57610b83600082610b57565b600181019050610b70565b5050565b601f821115610bd357610ba481610a73565b610bad84610a88565b81016020851015610bbc578190505b610bd0610bc885610a88565b830182610b6f565b50505b505050565b600082821c905092915050565b6000610bf660001984600802610bd8565b1980831691505092915050565b6000610c0f8383610be5565b9150826002028217905092915050565b610c288261084d565b67ffffffffffffffff811115610c4157610c40610610565b5b610c4b8254610a42565b610c56828285610b92565b600060209050601f831160018114610c895760008415610c77578287015190505b610c818582610c03565b865550610ce9565b601f198416610c9786610a73565b60005b82811015610cbf57848901518255600182019150602085019450602081019050610c9a565b86831015610cdc5784890151610cd8601f891682610be5565b8355505b6001600288020188555050505b505050505050565b7f4e487b7100000000000000000000000000000000000000000000000000000000600052601160045260246000fd5b6000610d2b826105ad565b9150610d36836105ad565b9250828203905081811115610d4e57610d4d610cf1565b5b92915050565b60006020820190508181036000830152610d6e8184610987565b905092915050565b7f4e487b7100000000000000000000000000000000000000000000000000000000600052603260045260246000fdfea26469706673582212208d0e0bb770f8fbe51d9f01c019b809fe4b689f67f5f77b97e4d5717b595bc8a764736f6c634300081c0033",
  "linkReferences": {},
  "deployedLinkReferences": {}
}