{
  "_format": "hh-sol-artifact-1",
  "contractName": "AuthorManager",
  "sourceName": "contracts/AuthorManager.sol",
  "abi": [
    {
      "inputs": [],
      "stateMutability": "payable",
      "type": "constructor"
    },
    {
      "anonymous": false,
      "inputs": [
        {
          "indexed": true,
          "internalType": "uint256",
          "name": "authorId",
          "type": "uint256"
        },
        {
          "indexed": true,
          "internalType": "address",
          "name": "user",
          "type": "address"
        }
      ],
      "name": "authorAdded",
      "type": "event"
    },
    {
      "inputs": [
        {
          "internalType": "string",
          "name": "firstName",
          "type": "string"
        },
        {
          "internalType": "string",
          "name": "lastName",
          "type": "string"
        },
        {
          "internalType": "string",
          "name": "email",
          "type": "string"
        },
        {
          "internalType": "string",
          "name": "doi",
          "type": "string"
        }
      ],
      "name": "add",
      "outputs": [],
      "stateMutability": "nonpayable",
      "type": "function"
    },
    {
      "inputs": [
        {
          "internalType": "string",
          "name": "firstName",
          "type": "string"
        },
        {
          "internalType": "string",
          "name": "lastName",
          "type": "string"
        },
        {
          "internalType": "string",
          "name": "email",
          "type": "string"
        }
      ],
      "name": "add",
      "outputs": [],
      "stateMutability": "nonpayable",
      "type": "function"
    },
    {
      "inputs": [
        {
          "internalType": "uint256",
          "name": "",
          "type": "uint256"
        }
      ],
      "name": "authors",
      "outputs": [
        {
          "internalType": "string",
          "name": "firstName",
          "type": "string"
        },
        {
          "internalType": "string",
          "name": "lastName",
          "type": "string"
        },
        {
          "internalType": "string",
          "name": "email",
          "type": "string"
        },
        {
          "internalType": "string",
          "name": "doi",
          "type": "string"
        },
        {
          "internalType": "address",
          "name": "user",
          "type": "address"
        },
        {
          "internalType": "uint256",
          "name": "timestamp",
          "type": "uint256"
        }
      ],
      "stateMutability": "view",
      "type": "function"
    },
    {
      "inputs": [
        {
          "internalType": "uint256",
          "name": "index",
          "type": "uint256"
        }
      ],
      "name": "get",
      "outputs": [
        {
          "components": [
            {
              "internalType": "string",
              "name": "firstName",
              "type": "string"
            },
            {
              "internalType": "string",
              "name": "lastName",
              "type": "string"
            },
            {
              "internalType": "string",
              "name": "email",
              "type": "string"
            },
            {
              "internalType": "string",
              "name": "doi",
              "type": "string"
            },
            {
              "internalType": "address",
              "name": "user",
              "type": "address"
            },
            {
              "internalType": "uint256",
              "name": "timestamp",
              "type": "uint256"
            }
          ],
          "internalType": "struct AuthorManager.Author",
          "name": "",
          "type": "tuple"
        }
      ],
      "stateMutability": "view",
      "type": "function"
    },
    {
      "inputs": [],
      "name": "getList",
      "outputs": [
        {
          "components": [
            {
              "internalType": "string",
              "name": "firstName",
              "type": "string"
            },
            {
              "internalType": "string",
              "name": "lastName",
              "type": "string"
            },
            {
              "internalType": "string",
              "name": "email",
              "type": "string"
            },
            {
              "internalType": "string",
              "name": "doi",
              "type": "string"
            },
            {
              "internalType": "address",
              "name": "user",
              "type": "address"
            },
            {
              "internalType": "uint256",
              "name": "timestamp",
              "type": "uint256"
            }
          ],
          "internalType": "struct AuthorManager.Author[]",
          "name": "",
          "type": "tuple[]"
        }
      ],
      "stateMutability": "view",
      "type": "function"
    },
    {
      "inputs": [],
      "name": "getTotal",
      "outputs": [
        {
          "internalType": "uint256",
          "name": "",
          "type": "uint256"
        }
      ],
      "stateMutability": "view",
      "type": "function"
    },
    {
      "inputs": [],
      "name": "owner",
      "outputs": [
        {
          "internalType": "address payable",
          "name": "",
          "type": "address"
        }
      ],
      "stateMutability": "view",
      "type": "function"
    },
    {
      "inputs": [
        {
          "components": [
            {
              "internalType": "uint256",
              "name": "idx",
              "type": "uint256"
            },
            {
              "internalType": "string",
              "name": "firstName",
              "type": "string"
            },
            {
              "internalType": "string",
              "name": "lastName",
              "type": "string"
            },
            {
              "internalType": "string",
              "name": "email",
              "type": "string"
            },
            {
              "internalType": "string",
              "name": "doi",
              "type": "string"
            }
          ],
          "internalType": "struct AuthorManager.EditAuthr",
          "name": "author",
          "type": "tuple"
        }
      ],
      "name": "set",
      "outputs": [],
      "stateMutability": "nonpayable",
      "type": "function"
    }
  ],
  "bytecode": "0x608060405233600160006101000a81548173ffffffffffffffffffffffffffffffffffffffff021916908373ffffffffffffffffffffffffffffffffffffffff160217905550611ad5806100546000396000f3fe608060405234801561001057600080fd5b50600436106100885760003560e01c8063942b765a1161005b578063942b765a1461011a5780639507d39a14610138578063f034d6b114610168578063f8b27efc1461018457610088565b80633db804da1461008d578063775a25e3146100c2578063878fc108146100e05780638da5cb5b146100fc575b600080fd5b6100a760048036038101906100a29190610e36565b6101a0565b6040516100b996959493929190610f43565b60405180910390f35b6100ca61042c565b6040516100d79190610fc0565b60405180910390f35b6100fa60048036038101906100f59190611110565b610438565b005b6101046105ac565b6040516101119190611208565b60405180910390f35b6101226105d2565b60405161012f91906113eb565b60405180910390f35b610152600480360381019061014d9190610e36565b6108d9565b60405161015f91906114ab565b60405180910390f35b610182600480360381019061017d91906114cd565b610c04565b005b61019e6004803603810190610199919061167a565b610c2a565b005b600081815481106101b057600080fd5b90600052602060002090600602016000915090508060000180546101d3906116f2565b80601f01602080910402602001604051908101604052809291908181526020018280546101ff906116f2565b801561024c5780601f106102215761010080835404028352916020019161024c565b820191906000526020600020905b81548152906001019060200180831161022f57829003601f168201915b505050505090806001018054610261906116f2565b80601f016020809104026020016040519081016040528092919081815260200182805461028d906116f2565b80156102da5780601f106102af576101008083540402835291602001916102da565b820191906000526020600020905b8154815290600101906020018083116102bd57829003601f168201915b5050505050908060020180546102ef906116f2565b80601f016020809104026020016040519081016040528092919081815260200182805461031b906116f2565b80156103685780601f1061033d57610100808354040283529160200191610368565b820191906000526020600020905b81548152906001019060200180831161034b57829003601f168201915b50505050509080600301805461037d906116f2565b80601f01602080910402602001604051908101604052809291908181526020018280546103a9906116f2565b80156103f65780601f106103cb576101008083540402835291602001916103f6565b820191906000526020600020905b8154815290600101906020018083116103d957829003601f168201915b5050505050908060040160009054906101000a900473ffffffffffffffffffffffffffffffffffffffff16908060050154905086565b60008080549050905090565b60006040518060c001604052808681526020018581526020018481526020018381526020013373ffffffffffffffffffffffffffffffffffffffff16815260200142815250908060018154018082558091505060019003906000526020600020906006020160009091909190915060008201518160000190816104bb91906118cf565b5060208201518160010190816104d191906118cf565b5060408201518160020190816104e791906118cf565b5060608201518160030190816104fd91906118cf565b5060808201518160040160006101000a81548173ffffffffffffffffffffffffffffffffffffffff021916908373ffffffffffffffffffffffffffffffffffffffff16021790555060a0820151816005015550503373ffffffffffffffffffffffffffffffffffffffff16600160008054905061057a91906119d0565b7f881b68b8cdac78b601c00ef01e6b5f9c03ba14402a84beae23ee01a212d797df60405160405180910390a350505050565b600160009054906101000a900473ffffffffffffffffffffffffffffffffffffffff1681565b60606000805480602002602001604051908101604052809291908181526020016000905b828210156108d057838290600052602060002090600602016040518060c0016040529081600082018054610629906116f2565b80601f0160208091040260200160405190810160405280929190818152602001828054610655906116f2565b80156106a25780601f10610677576101008083540402835291602001916106a2565b820191906000526020600020905b81548152906001019060200180831161068557829003601f168201915b505050505081526020016001820180546106bb906116f2565b80601f01602080910402602001604051908101604052809291908181526020018280546106e7906116f2565b80156107345780601f1061070957610100808354040283529160200191610734565b820191906000526020600020905b81548152906001019060200180831161071757829003601f168201915b5050505050815260200160028201805461074d906116f2565b80601f0160208091040260200160405190810160405280929190818152602001828054610779906116f2565b80156107c65780601f1061079b576101008083540402835291602001916107c6565b820191906000526020600020905b8154815290600101906020018083116107a957829003601f168201915b505050505081526020016003820180546107df906116f2565b80601f016020809104026020016040519081016040528092919081815260200182805461080b906116f2565b80156108585780601f1061082d57610100808354040283529160200191610858565b820191906000526020600020905b81548152906001019060200180831161083b57829003601f168201915b505050505081526020016004820160009054906101000a900473ffffffffffffffffffffffffffffffffffffffff1673ffffffffffffffffffffffffffffffffffffffff1673ffffffffffffffffffffffffffffffffffffffff168152602001600582015481525050815260200190600101906105f6565b50505050905090565b6108e1610da0565b6000805490508210610928576040517f08c379a000000000000000000000000000000000000000000000000000000000815260040161091f90611a50565b60405180910390fd5b6000828154811061093c5761093b611a70565b5b90600052602060002090600602016040518060c0016040529081600082018054610965906116f2565b80601f0160208091040260200160405190810160405280929190818152602001828054610991906116f2565b80156109de5780601f106109b3576101008083540402835291602001916109de565b820191906000526020600020905b8154815290600101906020018083116109c157829003601f168201915b505050505081526020016001820180546109f7906116f2565b80601f0160208091040260200160405190810160405280929190818152602001828054610a23906116f2565b8015610a705780601f10610a4557610100808354040283529160200191610a70565b820191906000526020600020905b815481529060010190602001808311610a5357829003601f168201915b50505050508152602001600282018054610a89906116f2565b80601f0160208091040260200160405190810160405280929190818152602001828054610ab5906116f2565b8015610b025780601f10610ad757610100808354040283529160200191610b02565b820191906000526020600020905b815481529060010190602001808311610ae557829003601f168201915b50505050508152602001600382018054610b1b906116f2565b80601f0160208091040260200160405190810160405280929190818152602001828054610b47906116f2565b8015610b945780601f10610b6957610100808354040283529160200191610b94565b820191906000526020600020905b815481529060010190602001808311610b7757829003601f168201915b505050505081526020016004820160009054906101000a900473ffffffffffffffffffffffffffffffffffffffff1673ffffffffffffffffffffffffffffffffffffffff1673ffffffffffffffffffffffffffffffffffffffff1681526020016005820154815250509050919050565b6000604051806020016040528060008152509050610c2484848484610438565b50505050565b600080549050816000015110610c75576040517f08c379a0000000000000000000000000000000000000000000000000000000008152600401610c6c90611a50565b60405180910390fd5b60008160200151511115610cbf5780602001516000826000015181548110610ca057610c9f611a70565b5b90600052602060002090600602016000019081610cbd91906118cf565b505b60008160400151511115610d095780604001516000826000015181548110610cea57610ce9611a70565b5b90600052602060002090600602016001019081610d0791906118cf565b505b60008160600151511115610d535780606001516000826000015181548110610d3457610d33611a70565b5b90600052602060002090600602016002019081610d5191906118cf565b505b60008160800151511115610d9d5780608001516000826000015181548110610d7e57610d7d611a70565b5b90600052602060002090600602016003019081610d9b91906118cf565b505b50565b6040518060c0016040528060608152602001606081526020016060815260200160608152602001600073ffffffffffffffffffffffffffffffffffffffff168152602001600081525090565b6000604051905090565b600080fd5b600080fd5b6000819050919050565b610e1381610e00565b8114610e1e57600080fd5b50565b600081359050610e3081610e0a565b92915050565b600060208284031215610e4c57610e4b610df6565b5b6000610e5a84828501610e21565b91505092915050565b600081519050919050565b600082825260208201905092915050565b60005b83811015610e9d578082015181840152602081019050610e82565b60008484015250505050565b6000601f19601f8301169050919050565b6000610ec582610e63565b610ecf8185610e6e565b9350610edf818560208601610e7f565b610ee881610ea9565b840191505092915050565b600073ffffffffffffffffffffffffffffffffffffffff82169050919050565b6000610f1e82610ef3565b9050919050565b610f2e81610f13565b82525050565b610f3d81610e00565b82525050565b600060c0820190508181036000830152610f5d8189610eba565b90508181036020830152610f718188610eba565b90508181036040830152610f858187610eba565b90508181036060830152610f998186610eba565b9050610fa86080830185610f25565b610fb560a0830184610f34565b979650505050505050565b6000602082019050610fd56000830184610f34565b92915050565b600080fd5b600080fd5b7f4e487b7100000000000000000000000000000000000000000000000000000000600052604160045260246000fd5b61101d82610ea9565b810181811067ffffffffffffffff8211171561103c5761103b610fe5565b5b80604052505050565b600061104f610dec565b905061105b8282611014565b919050565b600067ffffffffffffffff82111561107b5761107a610fe5565b5b61108482610ea9565b9050602081019050919050565b82818337600083830152505050565b60006110b36110ae84611060565b611045565b9050828152602081018484840111156110cf576110ce610fe0565b5b6110da848285611091565b509392505050565b600082601f8301126110f7576110f6610fdb565b5b81356111078482602086016110a0565b91505092915050565b6000806000806080858703121561112a57611129610df6565b5b600085013567ffffffffffffffff81111561114857611147610dfb565b5b611154878288016110e2565b945050602085013567ffffffffffffffff81111561117557611174610dfb565b5b611181878288016110e2565b935050604085013567ffffffffffffffff8111156111a2576111a1610dfb565b5b6111ae878288016110e2565b925050606085013567ffffffffffffffff8111156111cf576111ce610dfb565b5b6111db878288016110e2565b91505092959194509250565b60006111f282610ef3565b9050919050565b611202816111e7565b82525050565b600060208201905061121d60008301846111f9565b92915050565b600081519050919050565b600082825260208201905092915050565b6000819050602082019050919050565b600082825260208201905092915050565b600061126b82610e63565b611275818561124f565b9350611285818560208601610e7f565b61128e81610ea9565b840191505092915050565b6112a281610f13565b82525050565b6112b181610e00565b82525050565b600060c08301600083015184820360008601526112d48282611260565b915050602083015184820360208601526112ee8282611260565b915050604083015184820360408601526113088282611260565b915050606083015184820360608601526113228282611260565b91505060808301516113376080860182611299565b5060a083015161134a60a08601826112a8565b508091505092915050565b600061136183836112b7565b905092915050565b6000602082019050919050565b600061138182611223565b61138b818561122e565b93508360208202850161139d8561123f565b8060005b858110156113d957848403895281516113ba8582611355565b94506113c583611369565b925060208a019950506001810190506113a1565b50829750879550505050505092915050565b600060208201905081810360008301526114058184611376565b905092915050565b600060c083016000830151848203600086015261142a8282611260565b915050602083015184820360208601526114448282611260565b9150506040830151848203604086015261145e8282611260565b915050606083015184820360608601526114788282611260565b915050608083015161148d6080860182611299565b5060a08301516114a060a08601826112a8565b508091505092915050565b600060208201905081810360008301526114c5818461140d565b905092915050565b6000806000606084860312156114e6576114e5610df6565b5b600084013567ffffffffffffffff81111561150457611503610dfb565b5b611510868287016110e2565b935050602084013567ffffffffffffffff81111561153157611530610dfb565b5b61153d868287016110e2565b925050604084013567ffffffffffffffff81111561155e5761155d610dfb565b5b61156a868287016110e2565b9150509250925092565b600080fd5b600080fd5b600060a0828403121561159457611593611574565b5b61159e60a0611045565b905060006115ae84828501610e21565b600083015250602082013567ffffffffffffffff8111156115d2576115d1611579565b5b6115de848285016110e2565b602083015250604082013567ffffffffffffffff81111561160257611601611579565b5b61160e848285016110e2565b604083015250606082013567ffffffffffffffff81111561163257611631611579565b5b61163e848285016110e2565b606083015250608082013567ffffffffffffffff81111561166257611661611579565b5b61166e848285016110e2565b60808301525092915050565b6000602082840312156116905761168f610df6565b5b600082013567ffffffffffffffff8111156116ae576116ad610dfb565b5b6116ba8482850161157e565b91505092915050565b7f4e487b7100000000000000000000000000000000000000000000000000000000600052602260045260246000fd5b6000600282049050600182168061170a57607f821691505b60208210810361171d5761171c6116c3565b5b50919050565b60008190508160005260206000209050919050565b60006020601f8301049050919050565b600082821b905092915050565b6000600883026117857fffffffffffffffffffffffffffffffffffffffffffffffffffffffffffffffff82611748565b61178f8683611748565b95508019841693508086168417925050509392505050565b6000819050919050565b60006117cc6117c76117c284610e00565b6117a7565b610e00565b9050919050565b6000819050919050565b6117e6836117b1565b6117fa6117f2826117d3565b848454611755565b825550505050565b600090565b61180f611802565b61181a8184846117dd565b505050565b5b8181101561183e57611833600082611807565b600181019050611820565b5050565b601f8211156118835761185481611723565b61185d84611738565b8101602085101561186c578190505b61188061187885611738565b83018261181f565b50505b505050565b600082821c905092915050565b60006118a660001984600802611888565b1980831691505092915050565b60006118bf8383611895565b9150826002028217905092915050565b6118d882610e63565b67ffffffffffffffff8111156118f1576118f0610fe5565b5b6118fb82546116f2565b611906828285611842565b600060209050601f8311600181146119395760008415611927578287015190505b61193185826118b3565b865550611999565b601f19841661194786611723565b60005b8281101561196f5784890151825560018201915060208501945060208101905061194a565b8683101561198c5784890151611988601f891682611895565b8355505b6001600288020188555050505b505050505050565b7f4e487b7100000000000000000000000000000000000000000000000000000000600052601160045260246000fd5b60006119db82610e00565b91506119e683610e00565b92508282039050818111156119fe576119fd6119a1565b5b92915050565b7f417574686f7220696e646578206f7574206f6620626f756e6473000000000000600082015250565b6000611a3a601a83610e6e565b9150611a4582611a04565b602082019050919050565b60006020820190508181036000830152611a6981611a2d565b9050919050565b7f4e487b7100000000000000000000000000000000000000000000000000000000600052603260045260246000fdfea26469706673582212203919a6580a6e1ff7ee48540b1508ec5f52761981fdafb045f3e0dfd49abf305f64736f6c634300081c0033",
  "linkReferences": {},
  "deployedLinkReferences": {}
}