{
  "_format": "hh-sol-artifact-1",
  "contractName": "KeywordManager",
  "sourceName": "contracts/KeywordManager.sol",
  "abi": [
    {
      "inputs": [],
      "stateMutability": "payable",
      "type": "constructor"
    },
    {
      "anonymous": false,
      "inputs": [
        {
          "indexed": true,
          "internalType": "uint256",
          "name": "keywordId",
          "type": "uint256"
        },
        {
          "indexed": true,
          "internalType": "address",
          "name": "user",
          "type": "address"
        }
      ],
      "name": "keywordAdded",
      "type": "event"
    },
    {
      "inputs": [
        {
          "internalType": "string",
          "name": "_name",
          "type": "string"
        }
      ],
      "name": "add",
      "outputs": [],
      "stateMutability": "nonpayable",
      "type": "function"
    },
    {
      "inputs": [
        {
          "internalType": "uint256",
          "name": "_index",
          "type": "uint256"
        }
      ],
      "name": "get",
      "outputs": [
        {
          "components": [
            {
              "internalType": "string",
              "name": "name",
              "type": "string"
            },
            {
              "internalType": "address",
              "name": "user",
              "type": "address"
            },
            {
              "internalType": "uint256",
              "name": "timestamp",
              "type": "uint256"
            }
          ],
          "internalType": "struct KeywordManager.Keyword",
          "name": "",
          "type": "tuple"
        }
      ],
      "stateMutability": "view",
      "type": "function"
    },
    {
      "inputs": [],
      "name": "getList",
      "outputs": [
        {
          "components": [
            {
              "internalType": "string",
              "name": "name",
              "type": "string"
            },
            {
              "internalType": "address",
              "name": "user",
              "type": "address"
            },
            {
              "internalType": "uint256",
              "name": "timestamp",
              "type": "uint256"
            }
          ],
          "internalType": "struct KeywordManager.Keyword[]",
          "name": "",
          "type": "tuple[]"
        }
      ],
      "stateMutability": "view",
      "type": "function"
    },
    {
      "inputs": [],
      "name": "getTotal",
      "outputs": [
        {
          "internalType": "uint256",
          "name": "",
          "type": "uint256"
        }
      ],
      "stateMutability": "view",
      "type": "function"
    },
    {
      "inputs": [
        {
          "internalType": "uint256",
          "name": "",
          "type": "uint256"
        }
      ],
      "name": "keywords",
      "outputs": [
        {
          "internalType": "string",
          "name": "name",
          "type": "string"
        },
        {
          "internalType": "address",
          "name": "user",
          "type": "address"
        },
        {
          "internalType": "uint256",
          "name": "timestamp",
          "type": "uint256"
        }
      ],
      "stateMutability": "view",
      "type": "function"
    },
    {
      "inputs": [],
      "name": "owner",
      "outputs": [
        {
          "internalType": "address payable",
          "name": "",
          "type": "address"
        }
      ],
      "stateMutability": "view",
      "type": "function"
    }
  ],
  "bytecode": "0x608060405233600160006101000a81548173ffffffffffffffffffffffffffffffffffffffff021916908373ffffffffffffffffffffffffffffffffffffffff160217905550610f44806100546000396000f3fe608060405234801561001057600080fd5b50600436106100625760003560e01c8063041c888714610067578063775a25e3146100995780638da5cb5b146100b7578063942b765a146100d55780639507d39a146100f3578063b0c8f9dc14610123575b600080fd5b610081600480360381019061007c9190610670565b61013f565b6040516100909392919061077d565b60405180910390f35b6100a1610221565b6040516100ae91906107bb565b60405180910390f35b6100bf61022d565b6040516100cc91906107f7565b60405180910390f35b6100dd610253565b6040516100ea919061098c565b60405180910390f35b61010d60048036038101906101089190610670565b6103a4565b60405161011a91906109fe565b60405180910390f35b61013d60048036038101906101389190610b55565b6104d2565b005b6000818154811061014f57600080fd5b906000526020600020906003020160009150905080600001805461017290610bcd565b80601f016020809104026020016040519081016040528092919081815260200182805461019e90610bcd565b80156101eb5780601f106101c0576101008083540402835291602001916101eb565b820191906000526020600020905b8154815290600101906020018083116101ce57829003601f168201915b5050505050908060010160009054906101000a900473ffffffffffffffffffffffffffffffffffffffff16908060020154905083565b60008080549050905090565b600160009054906101000a900473ffffffffffffffffffffffffffffffffffffffff1681565b60606000805480602002602001604051908101604052809291908181526020016000905b8282101561039b57838290600052602060002090600302016040518060600160405290816000820180546102aa90610bcd565b80601f01602080910402602001604051908101604052809291908181526020018280546102d690610bcd565b80156103235780601f106102f857610100808354040283529160200191610323565b820191906000526020600020905b81548152906001019060200180831161030657829003601f168201915b505050505081526020016001820160009054906101000a900473ffffffffffffffffffffffffffffffffffffffff1673ffffffffffffffffffffffffffffffffffffffff1673ffffffffffffffffffffffffffffffffffffffff16815260200160028201548152505081526020019060010190610277565b50505050905090565b6103ac6105ef565b600082815481106103c0576103bf610bfe565b5b90600052602060002090600302016040518060600160405290816000820180546103e990610bcd565b80601f016020809104026020016040519081016040528092919081815260200182805461041590610bcd565b80156104625780601f1061043757610100808354040283529160200191610462565b820191906000526020600020905b81548152906001019060200180831161044557829003601f168201915b505050505081526020016001820160009054906101000a900473ffffffffffffffffffffffffffffffffffffffff1673ffffffffffffffffffffffffffffffffffffffff1673ffffffffffffffffffffffffffffffffffffffff1681526020016002820154815250509050919050565b600060405180606001604052808381526020013373ffffffffffffffffffffffffffffffffffffffff16815260200142815250908060018154018082558091505060019003906000526020600020906003020160009091909190915060008201518160000190816105439190610dd9565b5060208201518160010160006101000a81548173ffffffffffffffffffffffffffffffffffffffff021916908373ffffffffffffffffffffffffffffffffffffffff1602179055506040820151816002015550503373ffffffffffffffffffffffffffffffffffffffff1660016000805490506105c09190610eda565b7fae32935e37aaa655de58015378bbd01cbceeea32f4ebe7d2b410de31006fe2d460405160405180910390a350565b604051806060016040528060608152602001600073ffffffffffffffffffffffffffffffffffffffff168152602001600081525090565b6000604051905090565b600080fd5b600080fd5b6000819050919050565b61064d8161063a565b811461065857600080fd5b50565b60008135905061066a81610644565b92915050565b60006020828403121561068657610685610630565b5b60006106948482850161065b565b91505092915050565b600081519050919050565b600082825260208201905092915050565b60005b838110156106d75780820151818401526020810190506106bc565b60008484015250505050565b6000601f19601f8301169050919050565b60006106ff8261069d565b61070981856106a8565b93506107198185602086016106b9565b610722816106e3565b840191505092915050565b600073ffffffffffffffffffffffffffffffffffffffff82169050919050565b60006107588261072d565b9050919050565b6107688161074d565b82525050565b6107778161063a565b82525050565b6000606082019050818103600083015261079781866106f4565b90506107a6602083018561075f565b6107b3604083018461076e565b949350505050565b60006020820190506107d0600083018461076e565b92915050565b60006107e18261072d565b9050919050565b6107f1816107d6565b82525050565b600060208201905061080c60008301846107e8565b92915050565b600081519050919050565b600082825260208201905092915050565b6000819050602082019050919050565b600082825260208201905092915050565b600061085a8261069d565b610864818561083e565b93506108748185602086016106b9565b61087d816106e3565b840191505092915050565b6108918161074d565b82525050565b6108a08161063a565b82525050565b600060608301600083015184820360008601526108c3828261084f565b91505060208301516108d86020860182610888565b5060408301516108eb6040860182610897565b508091505092915050565b600061090283836108a6565b905092915050565b6000602082019050919050565b600061092282610812565b61092c818561081d565b93508360208202850161093e8561082e565b8060005b8581101561097a578484038952815161095b85826108f6565b94506109668361090a565b925060208a01995050600181019050610942565b50829750879550505050505092915050565b600060208201905081810360008301526109a68184610917565b905092915050565b600060608301600083015184820360008601526109cb828261084f565b91505060208301516109e06020860182610888565b5060408301516109f36040860182610897565b508091505092915050565b60006020820190508181036000830152610a1881846109ae565b905092915050565b600080fd5b600080fd5b7f4e487b7100000000000000000000000000000000000000000000000000000000600052604160045260246000fd5b610a62826106e3565b810181811067ffffffffffffffff82111715610a8157610a80610a2a565b5b80604052505050565b6000610a94610626565b9050610aa08282610a59565b919050565b600067ffffffffffffffff821115610ac057610abf610a2a565b5b610ac9826106e3565b9050602081019050919050565b82818337600083830152505050565b6000610af8610af384610aa5565b610a8a565b905082815260208101848484011115610b1457610b13610a25565b5b610b1f848285610ad6565b509392505050565b600082601f830112610b3c57610b3b610a20565b5b8135610b4c848260208601610ae5565b91505092915050565b600060208284031215610b6b57610b6a610630565b5b600082013567ffffffffffffffff811115610b8957610b88610635565b5b610b9584828501610b27565b91505092915050565b7f4e487b7100000000000000000000000000000000000000000000000000000000600052602260045260246000fd5b60006002820490506001821680610be557607f821691505b602082108103610bf857610bf7610b9e565b5b50919050565b7f4e487b7100000000000000000000000000000000000000000000000000000000600052603260045260246000fd5b60008190508160005260206000209050919050565b60006020601f8301049050919050565b600082821b905092915050565b600060088302610c8f7fffffffffffffffffffffffffffffffffffffffffffffffffffffffffffffffff82610c52565b610c998683610c52565b95508019841693508086168417925050509392505050565b6000819050919050565b6000610cd6610cd1610ccc8461063a565b610cb1565b61063a565b9050919050565b6000819050919050565b610cf083610cbb565b610d04610cfc82610cdd565b848454610c5f565b825550505050565b600090565b610d19610d0c565b610d24818484610ce7565b505050565b5b81811015610d4857610d3d600082610d11565b600181019050610d2a565b5050565b601f821115610d8d57610d5e81610c2d565b610d6784610c42565b81016020851015610d76578190505b610d8a610d8285610c42565b830182610d29565b50505b505050565b600082821c905092915050565b6000610db060001984600802610d92565b1980831691505092915050565b6000610dc98383610d9f565b9150826002028217905092915050565b610de28261069d565b67ffffffffffffffff811115610dfb57610dfa610a2a565b5b610e058254610bcd565b610e10828285610d4c565b600060209050601f831160018114610e435760008415610e31578287015190505b610e3b8582610dbd565b865550610ea3565b601f198416610e5186610c2d565b60005b82811015610e7957848901518255600182019150602085019450602081019050610e54565b86831015610e965784890151610e92601f891682610d9f565b8355505b6001600288020188555050505b505050505050565b7f4e487b7100000000000000000000000000000000000000000000000000000000600052601160045260246000fd5b6000610ee58261063a565b9150610ef08361063a565b9250828203905081811115610f0857610f07610eab565b5b9291505056fea264697066735822122095371fe7763235e1a47b40de0e95077ed24f404cc0e453256cfbf9df728ff71264736f6c634300081c0033",
  "linkReferences": {},
  "deployedLinkReferences": {}
}