{
  "_format": "hh-sol-artifact-1",
  "contractName": "KeywordManager",
  "sourceName": "contracts/KeywordManager.sol",
  "abi": [
    {
      "inputs": [],
      "stateMutability": "payable",
      "type": "constructor"
    },
    {
      "anonymous": false,
      "inputs": [
        {
          "indexed": true,
          "internalType": "uint256",
          "name": "keywordId",
          "type": "uint256"
        },
        {
          "indexed": true,
          "internalType": "address",
          "name": "user",
          "type": "address"
        }
      ],
      "name": "keywordAdded",
      "type": "event"
    },
    {
      "inputs": [
        {
          "internalType": "string",
          "name": "_name",
          "type": "string"
        }
      ],
      "name": "add",
      "outputs": [],
      "stateMutability": "nonpayable",
      "type": "function"
    },
    {
      "inputs": [
        {
          "internalType": "uint256",
          "name": "_index",
          "type": "uint256"
        }
      ],
      "name": "get",
      "outputs": [
        {
          "components": [
            {
              "internalType": "string",
              "name": "name",
              "type": "string"
            },
            {
              "internalType": "address",
              "name": "user",
              "type": "address"
            },
            {
              "internalType": "uint256",
              "name": "timestamp",
              "type": "uint256"
            }
          ],
          "internalType": "struct KeywordManager.Keyword",
          "name": "",
          "type": "tuple"
        }
      ],
      "stateMutability": "view",
      "type": "function"
    },
    {
      "inputs": [],
      "name": "getTotal",
      "outputs": [
        {
          "internalType": "uint256",
          "name": "",
          "type": "uint256"
        }
      ],
      "stateMutability": "view",
      "type": "function"
    },
    {
      "inputs": [
        {
          "internalType": "uint256",
          "name": "",
          "type": "uint256"
        }
      ],
      "name": "keywords",
      "outputs": [
        {
          "internalType": "string",
          "name": "name",
          "type": "string"
        },
        {
          "internalType": "address",
          "name": "user",
          "type": "address"
        },
        {
          "internalType": "uint256",
          "name": "timestamp",
          "type": "uint256"
        }
      ],
      "stateMutability": "view",
      "type": "function"
    },
    {
      "inputs": [],
      "name": "owner",
      "outputs": [
        {
          "internalType": "address payable",
          "name": "",
          "type": "address"
        }
      ],
      "stateMutability": "view",
      "type": "function"
    }
  ],
  "bytecode": "0x608060405233600160006101000a81548173ffffffffffffffffffffffffffffffffffffffff021916908373ffffffffffffffffffffffffffffffffffffffff160217905550610c96806100546000396000f3fe608060405234801561001057600080fd5b50600436106100575760003560e01c8063041c88871461005c578063775a25e31461008e5780638da5cb5b146100ac5780639507d39a146100ca578063b0c8f9dc146100fa575b600080fd5b610076600480360381019061007191906104f6565b610116565b60405161008593929190610603565b60405180910390f35b6100966101f8565b6040516100a39190610641565b60405180910390f35b6100b4610204565b6040516100c1919061067d565b60405180910390f35b6100e460048036038101906100df91906104f6565b61022a565b6040516100f19190610750565b60405180910390f35b610114600480360381019061010f91906108a7565b610358565b005b6000818154811061012657600080fd5b90600052602060002090600302016000915090508060000180546101499061091f565b80601f01602080910402602001604051908101604052809291908181526020018280546101759061091f565b80156101c25780601f10610197576101008083540402835291602001916101c2565b820191906000526020600020905b8154815290600101906020018083116101a557829003601f168201915b5050505050908060010160009054906101000a900473ffffffffffffffffffffffffffffffffffffffff16908060020154905083565b60008080549050905090565b600160009054906101000a900473ffffffffffffffffffffffffffffffffffffffff1681565b610232610475565b6000828154811061024657610245610950565b5b906000526020600020906003020160405180606001604052908160008201805461026f9061091f565b80601f016020809104026020016040519081016040528092919081815260200182805461029b9061091f565b80156102e85780601f106102bd576101008083540402835291602001916102e8565b820191906000526020600020905b8154815290600101906020018083116102cb57829003601f168201915b505050505081526020016001820160009054906101000a900473ffffffffffffffffffffffffffffffffffffffff1673ffffffffffffffffffffffffffffffffffffffff1673ffffffffffffffffffffffffffffffffffffffff1681526020016002820154815250509050919050565b600060405180606001604052808381526020013373ffffffffffffffffffffffffffffffffffffffff16815260200142815250908060018154018082558091505060019003906000526020600020906003020160009091909190915060008201518160000190816103c99190610b2b565b5060208201518160010160006101000a81548173ffffffffffffffffffffffffffffffffffffffff021916908373ffffffffffffffffffffffffffffffffffffffff1602179055506040820151816002015550503373ffffffffffffffffffffffffffffffffffffffff1660016000805490506104469190610c2c565b7fae32935e37aaa655de58015378bbd01cbceeea32f4ebe7d2b410de31006fe2d460405160405180910390a350565b604051806060016040528060608152602001600073ffffffffffffffffffffffffffffffffffffffff168152602001600081525090565b6000604051905090565b600080fd5b600080fd5b6000819050919050565b6104d3816104c0565b81146104de57600080fd5b50565b6000813590506104f0816104ca565b92915050565b60006020828403121561050c5761050b6104b6565b5b600061051a848285016104e1565b91505092915050565b600081519050919050565b600082825260208201905092915050565b60005b8381101561055d578082015181840152602081019050610542565b60008484015250505050565b6000601f19601f8301169050919050565b600061058582610523565b61058f818561052e565b935061059f81856020860161053f565b6105a881610569565b840191505092915050565b600073ffffffffffffffffffffffffffffffffffffffff82169050919050565b60006105de826105b3565b9050919050565b6105ee816105d3565b82525050565b6105fd816104c0565b82525050565b6000606082019050818103600083015261061d818661057a565b905061062c60208301856105e5565b61063960408301846105f4565b949350505050565b600060208201905061065660008301846105f4565b92915050565b6000610667826105b3565b9050919050565b6106778161065c565b82525050565b6000602082019050610692600083018461066e565b92915050565b600082825260208201905092915050565b60006106b482610523565b6106be8185610698565b93506106ce81856020860161053f565b6106d781610569565b840191505092915050565b6106eb816105d3565b82525050565b6106fa816104c0565b82525050565b6000606083016000830151848203600086015261071d82826106a9565b915050602083015161073260208601826106e2565b50604083015161074560408601826106f1565b508091505092915050565b6000602082019050818103600083015261076a8184610700565b905092915050565b600080fd5b600080fd5b7f4e487b7100000000000000000000000000000000000000000000000000000000600052604160045260246000fd5b6107b482610569565b810181811067ffffffffffffffff821117156107d3576107d261077c565b5b80604052505050565b60006107e66104ac565b90506107f282826107ab565b919050565b600067ffffffffffffffff8211156108125761081161077c565b5b61081b82610569565b9050602081019050919050565b82818337600083830152505050565b600061084a610845846107f7565b6107dc565b90508281526020810184848401111561086657610865610777565b5b610871848285610828565b509392505050565b600082601f83011261088e5761088d610772565b5b813561089e848260208601610837565b91505092915050565b6000602082840312156108bd576108bc6104b6565b5b600082013567ffffffffffffffff8111156108db576108da6104bb565b5b6108e784828501610879565b91505092915050565b7f4e487b7100000000000000000000000000000000000000000000000000000000600052602260045260246000fd5b6000600282049050600182168061093757607f821691505b60208210810361094a576109496108f0565b5b50919050565b7f4e487b7100000000000000000000000000000000000000000000000000000000600052603260045260246000fd5b60008190508160005260206000209050919050565b60006020601f8301049050919050565b600082821b905092915050565b6000600883026109e17fffffffffffffffffffffffffffffffffffffffffffffffffffffffffffffffff826109a4565b6109eb86836109a4565b95508019841693508086168417925050509392505050565b6000819050919050565b6000610a28610a23610a1e846104c0565b610a03565b6104c0565b9050919050565b6000819050919050565b610a4283610a0d565b610a56610a4e82610a2f565b8484546109b1565b825550505050565b600090565b610a6b610a5e565b610a76818484610a39565b505050565b5b81811015610a9a57610a8f600082610a63565b600181019050610a7c565b5050565b601f821115610adf57610ab08161097f565b610ab984610994565b81016020851015610ac8578190505b610adc610ad485610994565b830182610a7b565b50505b505050565b600082821c905092915050565b6000610b0260001984600802610ae4565b1980831691505092915050565b6000610b1b8383610af1565b9150826002028217905092915050565b610b3482610523565b67ffffffffffffffff811115610b4d57610b4c61077c565b5b610b57825461091f565b610b62828285610a9e565b600060209050601f831160018114610b955760008415610b83578287015190505b610b8d8582610b0f565b865550610bf5565b601f198416610ba38661097f565b60005b82811015610bcb57848901518255600182019150602085019450602081019050610ba6565b86831015610be85784890151610be4601f891682610af1565b8355505b6001600288020188555050505b505050505050565b7f4e487b7100000000000000000000000000000000000000000000000000000000600052601160045260246000fd5b6000610c37826104c0565b9150610c42836104c0565b9250828203905081811115610c5a57610c59610bfd565b5b9291505056fea26469706673582212208431fca49a14615cef2da0a6aa58aa6f8d7a72ad980f27abd829074cdd14a89464736f6c634300081c0033",
  "linkReferences": {},
  "deployedLinkReferences": {}
}